{
  "_format": "hh-sol-artifact-1",
  "contractName": "Donates",
  "sourceName": "contracts/Donates.sol",
  "abi": [
    {
      "inputs": [
        {
          "internalType": "uint256",
          "name": "k",
          "type": "uint256"
        }
      ],
      "stateMutability": "nonpayable",
      "type": "constructor"
    },
    {
      "inputs": [],
      "name": "Alreadyexists",
      "type": "error"
    },
    {
      "inputs": [
        {
          "internalType": "string",
          "name": "arrName",
          "type": "string"
        }
      ],
      "name": "ArrayIsEmpty",
      "type": "error"
    },
    {
      "inputs": [],
      "name": "CantBeEmpty",
      "type": "error"
    },
    {
      "inputs": [],
      "name": "MustBeMoreThanMinimalTransferCost",
      "type": "error"
    },
    {
      "anonymous": false,
      "inputs": [
        {
          "indexed": true,
          "internalType": "string",
          "name": "streamerUUid",
          "type": "string"
        },
        {
          "components": [
            {
              "internalType": "string",
              "name": "uuid",
              "type": "string"
            },
            {
              "components": [
                {
                  "internalType": "string",
                  "name": "userName",
                  "type": "string"
                },
                {
                  "internalType": "string",
                  "name": "messageText",
                  "type": "string"
                }
              ],
              "internalType": "struct PaymentUserData",
              "name": "paymentUserData",
              "type": "tuple"
            },
            {
              "components": [
                {
                  "internalType": "uint256",
                  "name": "date",
                  "type": "uint256"
                },
                {
                  "internalType": "string",
                  "name": "fromUUID",
                  "type": "string"
                },
                {
                  "internalType": "string",
                  "name": "toUUID",
                  "type": "string"
                },
                {
                  "internalType": "string",
                  "name": "wishUUID",
                  "type": "string"
                },
                {
                  "internalType": "address",
                  "name": "toAddress",
                  "type": "address"
                },
                {
                  "internalType": "enum PaymentType",
                  "name": "paymentType",
                  "type": "uint8"
                }
              ],
              "internalType": "struct PaymentInfo",
              "name": "paymentInfo",
              "type": "tuple"
            },
            {
              "internalType": "uint256",
              "name": "amount",
              "type": "uint256"
            },
            {
              "internalType": "uint256",
              "name": "transferedToUserAmount",
              "type": "uint256"
            }
          ],
          "indexed": false,
          "internalType": "struct Payment",
          "name": "payment",
          "type": "tuple"
        },
        {
          "indexed": true,
          "internalType": "enum PaymentType",
          "name": "paymentType",
          "type": "uint8"
        }
      ],
      "name": "PaymentCredited",
      "type": "event"
    },
    {
      "anonymous": false,
      "inputs": [
        {
          "indexed": true,
          "internalType": "string",
          "name": "uuid",
          "type": "string"
        },
        {
          "indexed": false,
          "internalType": "string",
          "name": "name",
          "type": "string"
        }
      ],
      "name": "UserCreated",
      "type": "event"
    },
    {
      "anonymous": false,
      "inputs": [
        {
          "indexed": true,
          "internalType": "string",
          "name": "userUUID",
          "type": "string"
        },
        {
          "indexed": false,
          "internalType": "string",
          "name": "wishId",
          "type": "string"
        },
        {
          "indexed": false,
          "internalType": "uint256",
          "name": "price",
          "type": "uint256"
        }
      ],
      "name": "WishAdded",
      "type": "event"
    },
    {
      "anonymous": false,
      "inputs": [
        {
          "indexed": true,
          "internalType": "string",
          "name": "userUUID",
          "type": "string"
        },
        {
          "indexed": false,
          "internalType": "string",
          "name": "wishid",
          "type": "string"
        },
        {
          "indexed": false,
          "internalType": "uint256",
          "name": "price",
          "type": "uint256"
        }
      ],
      "name": "WishCompleted",
      "type": "event"
    },
    {
      "anonymous": false,
      "inputs": [
        {
          "indexed": true,
          "internalType": "string",
          "name": "userUUID",
          "type": "string"
        },
        {
          "indexed": false,
          "internalType": "string",
          "name": "wishid",
          "type": "string"
        },
        {
          "indexed": false,
          "internalType": "uint256",
          "name": "accumulatedAmount",
          "type": "uint256"
        }
      ],
      "name": "WishDeleted",
      "type": "event"
    },
    {
      "inputs": [],
      "name": "K",
      "outputs": [
        {
          "internalType": "uint256",
          "name": "",
          "type": "uint256"
        }
      ],
      "stateMutability": "view",
      "type": "function"
    },
    {
      "inputs": [],
      "name": "MINIMAL_TRANSFER_COST",
      "outputs": [
        {
          "internalType": "uint256",
          "name": "",
          "type": "uint256"
        }
      ],
      "stateMutability": "view",
      "type": "function"
    },
    {
      "inputs": [],
      "name": "SCALE",
      "outputs": [
        {
          "internalType": "uint256",
          "name": "",
          "type": "uint256"
        }
      ],
      "stateMutability": "view",
      "type": "function"
    },
    {
      "inputs": [
        {
          "components": [
            {
              "internalType": "string",
              "name": "userUUID",
              "type": "string"
            },
            {
              "internalType": "string",
              "name": "uuid",
              "type": "string"
            },
            {
              "internalType": "uint256",
              "name": "currentBalance",
              "type": "uint256"
            },
            {
              "internalType": "uint256",
              "name": "price",
              "type": "uint256"
            },
            {
              "internalType": "string",
              "name": "name",
              "type": "string"
            },
            {
              "internalType": "string",
              "name": "link",
              "type": "string"
            },
            {
              "internalType": "string",
              "name": "description",
              "type": "string"
            },
            {
              "internalType": "bool",
              "name": "completed",
              "type": "bool"
            }
          ],
          "internalType": "struct Wish",
          "name": "wish",
          "type": "tuple"
        }
      ],
      "name": "addWish",
      "outputs": [],
      "stateMutability": "nonpayable",
      "type": "function"
    },
    {
      "inputs": [
        {
          "internalType": "string",
          "name": "newName",
          "type": "string"
        }
      ],
      "name": "changeName",
      "outputs": [],
      "stateMutability": "nonpayable",
      "type": "function"
    },
    {
      "inputs": [
        {
          "internalType": "address",
          "name": "useraddr",
          "type": "address"
        },
        {
          "internalType": "string",
          "name": "wishId",
          "type": "string"
        },
        {
          "internalType": "bool",
          "name": "remove",
          "type": "bool"
        }
      ],
      "name": "completeOrRemoveWish",
      "outputs": [],
      "stateMutability": "nonpayable",
      "type": "function"
    },
    {
      "inputs": [
        {
          "internalType": "string",
          "name": "uuid",
          "type": "string"
        },
        {
          "components": [
            {
              "internalType": "string",
              "name": "userName",
              "type": "string"
            },
            {
              "internalType": "string",
              "name": "messageText",
              "type": "string"
            }
          ],
          "internalType": "struct PaymentUserData",
          "name": "pud",
          "type": "tuple"
        },
        {
          "components": [
            {
              "internalType": "uint256",
              "name": "date",
              "type": "uint256"
            },
            {
              "internalType": "string",
              "name": "fromUUID",
              "type": "string"
            },
            {
              "internalType": "string",
              "name": "toUUID",
              "type": "string"
            },
            {
              "internalType": "string",
              "name": "wishUUID",
              "type": "string"
            },
            {
              "internalType": "address",
              "name": "toAddress",
              "type": "address"
            },
            {
              "internalType": "enum PaymentType",
              "name": "paymentType",
              "type": "uint8"
            }
          ],
          "internalType": "struct PaymentInfo",
          "name": "pi",
          "type": "tuple"
        }
      ],
      "name": "donate",
      "outputs": [],
      "stateMutability": "payable",
      "type": "function"
    },
    {
      "inputs": [],
      "name": "owner",
      "outputs": [
        {
          "internalType": "address payable",
          "name": "",
          "type": "address"
        }
      ],
      "stateMutability": "view",
      "type": "function"
    },
    {
      "inputs": [],
      "name": "ownerBalance",
      "outputs": [
        {
          "internalType": "uint256",
          "name": "",
          "type": "uint256"
        }
      ],
      "stateMutability": "view",
      "type": "function"
    },
    {
      "inputs": [
        {
          "internalType": "uint256",
          "name": "amount",
          "type": "uint256"
        }
      ],
      "name": "ownerWithdaw",
      "outputs": [],
      "stateMutability": "nonpayable",
      "type": "function"
    },
    {
      "inputs": [
        {
          "internalType": "string",
          "name": "name",
          "type": "string"
        },
        {
          "internalType": "string",
          "name": "uuid",
          "type": "string"
        },
        {
          "internalType": "string[]",
          "name": "topics",
          "type": "string[]"
        }
      ],
      "name": "registerUser",
      "outputs": [],
      "stateMutability": "nonpayable",
      "type": "function"
    },
    {
      "inputs": [
        {
          "internalType": "address",
          "name": "",
          "type": "address"
        }
      ],
      "name": "users",
      "outputs": [
        {
          "components": [
            {
              "internalType": "string",
              "name": "uuid",
              "type": "string"
            },
            {
              "internalType": "string",
              "name": "name",
              "type": "string"
            },
            {
              "components": [
                {
                  "internalType": "string",
                  "name": "uuid",
                  "type": "string"
                },
                {
                  "components": [
                    {
                      "internalType": "string",
                      "name": "userName",
                      "type": "string"
                    },
                    {
                      "internalType": "string",
                      "name": "messageText",
                      "type": "string"
                    }
                  ],
                  "internalType": "struct PaymentUserData",
                  "name": "paymentUserData",
                  "type": "tuple"
                },
                {
                  "components": [
                    {
                      "internalType": "uint256",
                      "name": "date",
                      "type": "uint256"
                    },
                    {
                      "internalType": "string",
                      "name": "fromUUID",
                      "type": "string"
                    },
                    {
                      "internalType": "string",
                      "name": "toUUID",
                      "type": "string"
                    },
                    {
                      "internalType": "string",
                      "name": "wishUUID",
                      "type": "string"
                    },
                    {
                      "internalType": "address",
                      "name": "toAddress",
                      "type": "address"
                    },
                    {
                      "internalType": "enum PaymentType",
                      "name": "paymentType",
                      "type": "uint8"
                    }
                  ],
                  "internalType": "struct PaymentInfo",
                  "name": "paymentInfo",
                  "type": "tuple"
                },
                {
                  "internalType": "uint256",
                  "name": "amount",
                  "type": "uint256"
                },
                {
                  "internalType": "uint256",
                  "name": "transferedToUserAmount",
                  "type": "uint256"
                }
              ],
              "internalType": "struct Payment[]",
              "name": "payments",
              "type": "tuple[]"
            },
            {
              "components": [
                {
                  "internalType": "string",
                  "name": "userUUID",
                  "type": "string"
                },
                {
                  "internalType": "string",
                  "name": "uuid",
                  "type": "string"
                },
                {
                  "internalType": "uint256",
                  "name": "currentBalance",
                  "type": "uint256"
                },
                {
                  "internalType": "uint256",
                  "name": "price",
                  "type": "uint256"
                },
                {
                  "internalType": "string",
                  "name": "name",
                  "type": "string"
                },
                {
                  "internalType": "string",
                  "name": "link",
                  "type": "string"
                },
                {
                  "internalType": "string",
                  "name": "description",
                  "type": "string"
                },
                {
                  "internalType": "bool",
                  "name": "completed",
                  "type": "bool"
                }
              ],
              "internalType": "struct Wish[]",
              "name": "wishes",
              "type": "tuple[]"
            },
            {
              "internalType": "string[]",
              "name": "topics",
              "type": "string[]"
            },
            {
              "internalType": "bool",
              "name": "isRegistered",
              "type": "bool"
            }
          ],
          "internalType": "struct User",
          "name": "user",
          "type": "tuple"
        },
        {
          "internalType": "uint256",
          "name": "currentBalance",
          "type": "uint256"
        }
      ],
      "stateMutability": "view",
      "type": "function"
    },
    {
      "inputs": [
        {
          "internalType": "string",
          "name": "uuid",
          "type": "string"
        },
        {
          "internalType": "string",
          "name": "userUUID",
          "type": "string"
        },
        {
          "internalType": "uint256",
          "name": "amount",
          "type": "uint256"
        }
      ],
      "name": "withdraw",
      "outputs": [],
      "stateMutability": "nonpayable",
      "type": "function"
    }
  ],
  "bytecode": "0x6080346100f457601f612c1a38819003918201601f19168301916001600160401b038311848410176100f8578084926020946040528339810103126100f4575180158015806100ea575b15610097575f80546001600160a01b03191633178155600355600a82810292830414171561008357600155604051612b0d908161010d8239f35b634e487b7160e01b5f52601160045260245ffd5b60405162461bcd60e51b815260206004820152602560248201527f4b2063616e277420626520657175616c20746f2030206f72206d6f72652074686044820152640616e2031360dc1b6064820152608490fd5b50600a8210610049565b5f80fd5b634e487b7160e01b5f52604160045260245ffdfe6080806040526004361015610012575f80fd5b5f3560e01c90816309722e0c14611aa9575080635353a2d81461197b57806354845a471461195c5780636a162ece1461190d5780638da5cb5b146118e8578063a87430ba1461143a578063a932492f1461141d578063ba73b81814611273578063bedcf00314611256578063e7a8c912146105ec578063eced5526146105d0578063f4426bfb146101845763f69e6d47146100ab575f80fd5b34610180576020366003190112610180576004356001600160a01b035f54169081330361013c5764e8d4a510008110610114575f808083610112956100ff83966003546100fa82821015612a35565b612515565b6003555af161010c612a80565b50612aaf565b005b7fe589bcc8000000000000000000000000000000000000000000000000000000005f5260045ffd5b606460405162461bcd60e51b815260206004820152601060248201527f75206d757374206265206f776e657221000000000000000000000000000000006044820152fd5b5f80fd5b60603660031901126101805760043567ffffffffffffffff8111610180576101b0903690600401611e10565b60243567ffffffffffffffff8111610180576040600319823603011261018057604051906101dd82611db6565b806004013567ffffffffffffffff8111610180576102019060043691840101611e10565b825260248101359067ffffffffffffffff82116101805760046102279236920101611e10565b60208201526044359067ffffffffffffffff82116101805760c060031983360301126101805760405161025981611d7e565b82600401358152602483013567ffffffffffffffff8111610180576102849060043691860101611e10565b9060208101918252604484013567ffffffffffffffff8111610180576102b09060043691870101611e10565b9160408201928352606485013567ffffffffffffffff8111610180576102dc9060043691880101611e10565b91606081019283526084860135956001600160a01b0387168703610180576080820196875260a401359060028210156101805760a0015285511561058c5764e8d4a5100034106101145751915181516001600160a01b03865116916040519461034486611d7e565b42865260208601526040850152606084015260808301525f60a08301526040519261036e84611d9a565b85845260208401526040830191825234606084015260808301945f8652600154803402903482041434151715610578576103e89004916103ae8334612515565b916001600160a01b03608086510151165f526002602052600660405f20016103d7848254612aca565b90556001600160a01b03608086510151165f526002602052600360405f2001915f5b835481101561053b576104186001610411838761205e565b5001611ea4565b6020815191012082516020815191012014610436575b6001016103f9565b6002610442828661205e565b500161044f868254612aca565b9055600261045d828661205e565b500154600361046c838761205e565b5001541161042e57935f9961053697947f0aeb5eff15ba550fb48d68ce3a5d6793a723c0452e39484838a85522d519aef9610516956104fa60036104f17fc251291991957f26d7775677114f287ef7a70d464267d3bd4297334afc95e7e79e9f9b6105219d996104ea6001600160a01b0360409f51168251906126c6565b519661205e565b500154916124dd565b926105098a51928392836124f9565b0390a25b52600354612aca565b6003555101516124dd565b92604051918291602083526020830190611f80565b0390a3005b505050507fc251291991957f26d7775677114f287ef7a70d464267d3bd4297334afc95e7e793945061053692610516610521936040935f9961050d565b634e487b7160e01b5f52601160045260245ffd5b606460405162461bcd60e51b815260206004820152601260248201527f757569642063616e2774206265206e756c6c00000000000000000000000000006044820152fd5b34610180575f3660031901126101805760206040516103e88152f35b346101805760603660031901126101805760043567ffffffffffffffff81116101805761061d903690600401611e10565b60243567ffffffffffffffff81116101805761063d903690600401611e10565b9060443567ffffffffffffffff8111610180573660238201121561018057806004013561066981611f44565b916106776040519384611dd2565b8183526024602084019260051b820101903682116101805760248101925b82841061122657505050508151156111e257335f52600260205260ff600560405f200154166111ba57604051916106cb83611d7e565b8383526020830152606060408301526060808301526080820152600160a0820152604051906106f982611db6565b8152602081015f8152335f52600260205260405f20908251805180519067ffffffffffffffff82116109e657610739826107338754611e6c565b876120a1565b602090601f83116001146111575761076892915f918361114c575b50508160011b915f199060031b1c19161790565b83555b60018301602082015180519067ffffffffffffffff82116109e65761079a826107948554611e6c565b856120a1565b602090601f83116001146110e9576107c892915f91836110de5750508160011b915f199060031b1c19161790565b90555b6002830160408201518051906801000000000000000082116109e6578254828455808310611042575b50602001915f5260205f20915f905b828210610b0c5750505050600383016060820151908151916801000000000000000083116109e6578154838355808410610a45575b50602001905f5260205f205f915b838310610a2757505050506004830160808201518051906801000000000000000082116109e65782548284558083106109fa575b50602001915f5260205f20915f905b82821061090557887ff32a9ee0d17d25c086bbe1fd7492121a0d326db5884d4b48a2401572db4844fb6109006108eb60208c8c60068d6108de60a08f01511515600585019060ff801983541691151516179055565b51910155510151936124dd565b92604051918291602083526020830190611f5c565b0390a2005b805180519067ffffffffffffffff82116109e65761092d826109278854611e6c565b886120a1565b602090601f831160011461097d5792610963836001959460209487965f926109725750508160011b915f199060031b1c19161790565b87555b01940191019092610889565b015190508f80610754565b90601f19831691875f52815f20925f5b8181106109ce57509360209360019693879693838895106109b6575b505050811b018755610966565b01515f1960f88460031b161c191690558e80806109a9565b9293602060018192878601518155019501930161098d565b634e487b7160e01b5f52604160045260245ffd5b835f528260205f2091820191015b818110610a15575061087a565b80610a216001926125fc565b01610a08565b6008602082610a3960019451866120e4565b01920192019190610846565b7f1fffffffffffffffffffffffffffffffffffffffffffffffffffffffffffffff81168103610578577f1fffffffffffffffffffffffffffffffffffffffffffffffffffffffffffffff8416840361057857825f5260205f209060031b8101908460031b015b818110610ab85750610838565b600890610ac4816125fc565b610ad0600182016125fc565b5f60028201555f6003820155610ae8600482016125fc565b610af4600582016125fc565b610b00600682016125fc565b5f600782015501610aab565b8051805180519067ffffffffffffffff82116109e657610b3682610b308954611e6c565b896120a1565b602090601f8311600114610fdf57610b6492915f9183610fd45750508160011b915f199060031b1c19161790565b85555b602081015180518051600188019167ffffffffffffffff82116109e657610b92826107948554611e6c565b602090601f8311600114610f7157610bc092915f91836109725750508160011b915f199060031b1c19161790565b90555b602001518051600287019167ffffffffffffffff82116109e657610beb826107948554611e6c565b602090601f8311600114610f0e57610c1992915f9183610f035750508160011b915f199060031b1c19161790565b90555b6040810151908151600387015560048601602083015180519067ffffffffffffffff82116109e657610c52826107948554611e6c565b602090601f8311600114610ea057610c8092915f91836109725750508160011b915f199060031b1c19161790565b90555b60058601604083015180519067ffffffffffffffff82116109e657610cac826107948554611e6c565b602090601f8311600114610e3d57610cda92915f91836109725750508160011b915f199060031b1c19161790565b90555b60068601606083015180519067ffffffffffffffff82116109e657610d06826107948554611e6c565b602090601f8311600114610dda57610d3492915f91836109725750508160011b915f199060031b1c19161790565b90555b60078601926001600160a01b036080840151169160a08554940151906002821015610dc657600195600a956020957fffffffffffffffffffffff00000000000000000000000000000000000000000074ff000000000000000000000000000000000000000060809660a01b16921617179055606081015160088a01550151600988015501940191019092610803565b634e487b7160e01b5f52602160045260245ffd5b90601f19831691845f52815f20925f5b818110610e255750908460019594939210610e0d575b505050811b019055610d37565b01515f1960f88460031b161c191690558e8080610e00565b92936020600181928786015181550195019301610dea565b90601f19831691845f52815f20925f5b818110610e885750908460019594939210610e70575b505050811b019055610cdd565b01515f1960f88460031b161c191690558e8080610e63565b92936020600181928786015181550195019301610e4d565b90601f19831691845f52815f20925f5b818110610eeb5750908460019594939210610ed3575b505050811b019055610c83565b01515f1960f88460031b161c191690558e8080610ec6565b92936020600181928786015181550195019301610eb0565b015190508e80610754565b90601f19831691845f52815f20925f5b818110610f595750908460019594939210610f41575b505050811b019055610c1c565b01515f1960f88460031b161c191690558d8080610f34565b92936020600181928786015181550195019301610f1e565b90601f19831691845f52815f20925f5b818110610fbc5750908460019594939210610fa4575b505050811b019055610bc3565b01515f1960f88460031b161c191690558e8080610f97565b92936020600181928786015181550195019301610f81565b015190508d80610754565b90601f19831691885f52815f20925f5b81811061102a5750908460019594939210611012575b505050811b018555610b67565b01515f1960f88460031b161c191690558c8080611005565b92936020600181928786015181550195019301610fef565b80600a0290600a8204036105785782600a02600a8104840361057857845f5260205f2091820191015b81811061107857506107f4565b80611084600a926125fc565b611090600182016125fc565b61109c600282016125fc565b5f60038201556110ae600482016125fc565b6110ba600582016125fc565b6110c6600682016125fc565b5f60078201555f60088201555f60098201550161106b565b015190508980610754565b90601f19831691845f52815f20925f5b818110611134575090846001959493921061111c575b505050811b0190556107cb565b01515f1960f88460031b161c1916905588808061110f565b929360206001819287860151815501950193016110f9565b015190508880610754565b90601f19831691865f52815f20925f5b8181106111a2575090846001959493921061118a575b505050811b01835561076b565b01515f1960f88460031b161c1916905587808061117d565b92936020600181928786015181550195019301611167565b7f9be4f888000000000000000000000000000000000000000000000000000000005f5260045ffd5b606460405162461bcd60e51b815260206004820152601360248201527f6e616d652063616e277420626520656d707479000000000000000000000000006044820152fd5b833567ffffffffffffffff81116101805760209161124b839260243691870101611e10565b815201930192610695565b34610180575f366003190112610180576020600354604051908152f35b346101805760603660031901126101805760043567ffffffffffffffff8111610180576112a4903690600401611e10565b60243567ffffffffffffffff8111610180576112c4903690600401611e10565b60443590335f5260026020526112e382600660405f2001541015612a35565b335f526002602052600660405f20016112fd838254612515565b90556113125f80808086335af161010c612a80565b335f52600260205261133b60405f206040519261132e84611d7e565b4284526020840152611ea4565b60408201526020916040516113508482611dd2565b5f81526060830152336080830152600160a0830152335f5260028352600160405f20016113886040519161138383611db6565b611ea4565b81526040516113978582611dd2565b5f815284820152604051946113ab86611d9a565b855283850152604084019182528060608501526080840152335f526002825260a060405f2091510151926002841015610dc6576114087fc251291991957f26d7775677114f287ef7a70d464267d3bd4297334afc95e7e79261264a565b92610536604051928284938452830190611f80565b34610180575f366003190112610180576020600154604051908152f35b34610180576020366003190112610180576001600160a01b0361145b611e56565b165f52600260205260405f2060405161147381611d7e565b61147c82611ea4565b815261148a60018301611ea4565b916020820192835260028101928354936114a385611f44565b946114b16040519687611dd2565b80865260208601915f5260205f205f925b8284106118005750505050604083019384526003820180546114e381611f44565b916114f16040519384611dd2565b81835260208301905f5260205f205f915b83831061176f5750505050606084019081526004830190815461152481611f44565b926115326040519485611dd2565b81845260208401905f5260205f205f915b8383106117525750505050608085019182526115a0600660ff6005870154169560a08801961515875201549361158d60405197604089525160c060408a0152610100890190611f5c565b9051878203603f19016060890152611f5c565b955195603f19868203016080870152865180825260208201916020808360051b8301019901925f915b8383106117255750505050505194603f198582030160a0860152855180825260208201916020808360051b8301019801925f915b8383106116795750505050505191603f198486030160c0850152825180865260208601906020808260051b8901019501915f905b82821061164e57878088888851151560e084015260208301520390f35b9091929560208061166b600193601f198d82030186528a51611f5c565b980192019201909291611631565b9091929398602080600192601f198582030186528c519060e08061170e6116fc6116ea6116c46116b488516101008952610100890190611f5c565b898901518882038b8a0152611f5c565b604088015160408801526060880151606088015260808801518782036080890152611f5c565b60a087015186820360a0880152611f5c565b60c086015185820360c0870152611f5c565b93015115159101529b0193019301919392906115fd565b90919293996020806117436001938e601f1987830301885251611f80565b9c0193019301919392906115c9565b60016020819261176185611ea4565b815201920192019190611543565b6008602060019260405161178281611d61565b61178b86611ea4565b8152611798858701611ea4565b8382015260028601546040820152600386015460608201526117bc60048701611ea4565b60808201526117cd60058701611ea4565b60a08201526117de60068701611ea4565b60c082015260ff600787015416151560e0820152815201920192019190611502565b6040519061180d82611d9a565b61181683611ea4565b825260405161182481611db6565b61183060018501611ea4565b815261183e60028501611ea4565b602082015260208301526040519061185582611d7e565b6003840154825261186860048501611ea4565b602083015261187960058501611ea4565b604083015261188a60068501611ea4565b606083015260ff60078501546001600160a01b038116608085015260a01c16906002821015610dc6576001938360209360a0600a960152604082015260088601546060820152600986015460808201528152019201930192906114c2565b34610180575f3660031901126101805760206001600160a01b035f5416604051908152f35b3461018057606036600319011261018057611926611e56565b60243567ffffffffffffffff811161018057611946903690600401611e10565b604435908115158203610180576101129261284c565b34610180575f36600319011261018057602060405164e8d4a510008152f35b346101805760203660031901126101805760043567ffffffffffffffff8111610180576119ac903690600401611e10565b805115611a8157335f526002602052600160405f2001815167ffffffffffffffff81116109e6576119e7816119e18454611e6c565b846120a1565b602092601f8211600114611a2557611a16929382915f92611a1a5750508160011b915f199060031b1c19161790565b9055005b015190508480610754565b601f19821693835f52805f20915f5b868110611a695750836001959610611a51575b505050811b019055005b01515f1960f88460031b161c19169055838080611a47565b91926020600181928685015181550194019201611a34565b7f6bc8ebc4000000000000000000000000000000000000000000000000000000005f5260045ffd5b34610180576020366003190112610180576004359067ffffffffffffffff821161018057610100600319833603011261018057611ae581611d61565b816004013567ffffffffffffffff811161018057611b099060043691850101611e10565b8152602482013567ffffffffffffffff811161018057611b2f9060043691850101611e10565b6020820190815260448301356040830152606082019260648101358452608481013567ffffffffffffffff811161018057611b709060043691840101611e10565b608084015260a481013567ffffffffffffffff811161018057611b999060043691840101611e10565b60a084015260c48101359067ffffffffffffffff821161018057611bc560e49260043691840101611e10565b60c0850152013580151581036101805760e08301908152835115611d1d5751611cd9575f335f526002602052600360405f20015f908054915b828110611c9f575b5050506111ba57335f526002602052600360405f20018054680100000000000000008110156109e657611c3e9160018201815561205e565b611c8c5782611c717fa509bfecc93809e56ee5bd9357aed7029badca6f39f134ed21be5d8f74422f4b94611c7c936120e4565b5191519351916124dd565b92610900604051928392836124f9565b634e487b7160e01b5f525f60045260245ffd5b611cae6001610411838561205e565b6020815191012085516020815191012014611ccb57600101611bfe565b505050506001848080611c06565b606460405162461bcd60e51b815260206004820152601c60248201527f63616e2774207075626c69736820636f6d706c657465642077697368000000006044820152fd5b606460405162461bcd60e51b815260206004820152601b60248201527f636f7374206d757374206265206d6f7265207468616e207a65726f00000000006044820152fd5b610100810190811067ffffffffffffffff8211176109e657604052565b60c0810190811067ffffffffffffffff8211176109e657604052565b60a0810190811067ffffffffffffffff8211176109e657604052565b6040810190811067ffffffffffffffff8211176109e657604052565b90601f8019910116810190811067ffffffffffffffff8211176109e657604052565b67ffffffffffffffff81116109e657601f01601f191660200190565b81601f8201121561018057803590611e2782611df4565b92611e356040519485611dd2565b8284526020838301011161018057815f926020809301838601378301015290565b600435906001600160a01b038216820361018057565b90600182811c92168015611e9a575b6020831014611e8657565b634e487b7160e01b5f52602260045260245ffd5b91607f1691611e7b565b9060405191825f825492611eb784611e6c565b8084529360018116908115611f225750600114611ede575b50611edc92500383611dd2565b565b90505f9291925260205f20905f915b818310611f06575050906020611edc928201015f611ecf565b6020919350806001915483858901015201910190918492611eed565b905060209250611edc94915060ff191682840152151560051b8201015f611ecf565b67ffffffffffffffff81116109e65760051b60200190565b805180835260209291819084018484015e5f828201840152601f01601f1916010190565b90611fcb611f97835160a0845260a0840190611f5c565b60208401519083810360208501526020611fba8351604084526040840190611f5c565b920151906020818403910152611f5c565b9160408101519282810360408401528351815260a0612023612011611fff602088015160c0602087015260c0860190611f5c565b60408801518582036040870152611f5c565b60608701518482036060860152611f5c565b946001600160a01b0360808201511660808401520151916002831015610dc65760809260a08493015260608101516060850152015191015290565b8054821015612077575f5260205f209060031b01905f90565b634e487b7160e01b5f52603260045260245ffd5b818110612096575050565b5f815560010161208b565b9190601f81116120b057505050565b611edc925f5260205f20906020601f840160051c830193106120da575b601f0160051c019061208b565b90915081906120cd565b919091825192835167ffffffffffffffff81116109e657612109816107948554611e6c565b602094601f821160011461247c5761213a9293949582915f926122db5750508160011b915f199060031b1c19161790565b82555b60018201602082015180519067ffffffffffffffff82116109e657612166826107948554611e6c565b602090601f83116001146124195761219492915f91836122db5750508160011b915f199060031b1c19161790565b90555b604081015160028301556060810151600383015560048201608082015180519067ffffffffffffffff82116109e6576121d4826107948554611e6c565b602090601f83116001146123b65761220292915f91836122db5750508160011b915f199060031b1c19161790565b90555b6005820160a082015180519067ffffffffffffffff82116109e65761222e826107948554611e6c565b602090601f83116001146123535761225c92915f91836122db5750508160011b915f199060031b1c19161790565b90555b6006820160c082015180519067ffffffffffffffff82116109e657612288826107948554611e6c565b602090601f83116001146122e657926122c18360e094611edc9897946007975f926122db5750508160011b915f199060031b1c19161790565b90555b0151151591019060ff801983541691151516179055565b015190505f80610754565b90601f19831691845f52815f20925f5b81811061233b575093611edc979693600796936001938360e09810612323575b505050811b0190556122c4565b01515f1960f88460031b161c191690555f8080612316565b929360206001819287860151815501950193016122f6565b90601f19831691845f52815f20925f5b81811061239e5750908460019594939210612386575b505050811b01905561225f565b01515f1960f88460031b161c191690555f8080612379565b92936020600181928786015181550195019301612363565b90601f19831691845f52815f20925f5b81811061240157509084600195949392106123e9575b505050811b019055612205565b01515f1960f88460031b161c191690555f80806123dc565b929360206001819287860151815501950193016123c6565b90601f19831691845f52815f20925f5b818110612464575090846001959493921061244c575b505050811b019055612197565b01515f1960f88460031b161c191690555f808061243f565b92936020600181928786015181550195019301612429565b601f19821695845f52805f20915f5b8881106124c5575083600195969798106124ad575b505050811b01825561213d565b01515f1960f88460031b161c191690555f80806124a0565b9192602060018192868501518155019401920161248b565b602090604051918183925191829101835e81015f815203902090565b929190612510602091604086526040860190611f5c565b930152565b9190820391821161057857565b9190918281146125f7576125368354611e6c565b67ffffffffffffffff81116109e657612553816119e18454611e6c565b5f93601f82116001146125915761258292939482915f926125865750508160011b915f199060031b1c19161790565b9055565b015490505f80610754565b601f198216905f5260205f2094835f5260205f20915f5b8181106125df575095836001959697106125c7575b505050811b019055565b01545f1960f88460031b161c191690555f80806125bd565b9192600180602092868b0154815501940192016125a8565b509050565b6126068154611e6c565b9081612610575050565b81601f5f9311600114612621575055565b8183526020832061263d91601f0160051c81019060010161208b565b8082528160208120915555565b60405180915f9080549061265d82611e6c565b91600181169081156126af575060011461267a575b505003902090565b9091505f5260205f205f905b82821061269857505081015f80612672565b805482860152849350602090910190600101612686565b60ff19168552505080151502820190505f80612672565b6001600160a01b031690815f526002602052600360405f20018054156127ee575f5b81548110156127e8576127006001610411838561205e565b60208151910120835160208501201461271b576001016126e8565b919260ff600761272b858561205e565b500154166127a457600761276f8460036127667f0aeb5eff15ba550fb48d68ce3a5d6793a723c0452e39484838a85522d519aef9978761205e565b5001549461205e565b5001600160ff198254161790555f52600260205261278f60405f2061264a565b9261279f604051928392836124f9565b0390a2565b606460405162461bcd60e51b815260206004820152601160248201527f616c726561647920636f6d706c657465640000000000000000000000000000006044820152fd5b50505050565b60646040517f38fe1e9a00000000000000000000000000000000000000000000000000000000815260206004820152600660248201527f77697368657300000000000000000000000000000000000000000000000000006044820152fd5b6001600160a01b0316805f526002602052600360405f2001908154156127ee575f5b825480821015612a2d576128876001610411848761205e565b6020815191012085516020870120146128a3575060010161286e565b9093946128b9575060ff600761272b858561205e565b919260026128c7828661205e565b500154925f198101908111610578576128e36128eb918661205e565b50918561205e565b611c8c578181036129a9575b505082548015612995575f190161290e818561205e565b949094611c8c575f6007866129437f48ee7a6ee9c61106257852a19d18931aa63a7ba0a58f77fb497e5567832b8757986125fc565b61294f600182016125fc565b826002820155826003820155612967600482016125fc565b612973600582016125fc565b61297f600682016125fc565b0155555f52600260205261278f60405f2061264a565b634e487b7160e01b5f52603160045260245ffd5b600760ff81846129bc612a269686612522565b6129cc6001820160018701612522565b60028101546002860155600381015460038601556129f06004820160048701612522565b612a006005820160058701612522565b612a106006820160068701612522565b01541691019060ff801983541691151516179055565b5f806128f7565b505050505050565b15612a3c57565b606460405162461bcd60e51b815260206004820152601060248201527f6e6f7420656e6f756768206d6f6e6579000000000000000000000000000000006044820152fd5b3d15612aaa573d90612a9182611df4565b91612a9f6040519384611dd2565b82523d5f602084013e565b606090565b15612ab657565b634e487b7160e01b5f52600160045260245ffd5b919082018092116105785756fea2646970667358221220c7b77d51f5c9a919705c162b3444e3d6fe8a7a4e94969a1000b9a453aa13538764736f6c634300081c0033",
  "linkReferences": {},
  "deployedLinkReferences": {}
}